{
  "blockhash": "289f63139f370e6c27815b770ee6335f3118b4cd1529db06872bc2fac77ab28f",
  "blocktime": 1720306827,
  "confirmations": 2,
  "hash": "62ae1a2a702af9eacefe6d05a417f0b123590b2a37e08358448d81d8c3e12c57",
  "hex": "00000020112ba32c7bc2f437b05d780f9ed488bf6397428d1ae2ea3e941f00eb38c2d98565f4ce04634f05d806c2cc6ca26e3bf2d4698968bdd94aa92f5c9215cbb3d08d6689cc8b2040000013000000",
  "locktime": 0,
  "size": 50,
  "time": 1720306827,
  "txid": "62ae1a2a702af9eacefe6d05a417f0b123590b2a37e08358448d81d8c3e12c57",
  "height": 27,
  "version": 2,
  "marker": 0,
  "flag": 1,
  "vin": [
    {
      "scriptSig": "",
      "txid": "a2c82f8a0326d3142c53da4ab4b53a3d95ef1755e3266a4df3e83f235a798fde",
      "vout": 0,
      "sequence": 4294967295,
      "witness": [
        "3046022100a49596beafae0136878325d5c607a0a6bd5d556095bce2139dea5aec78377173022100ac7e7d1ca14168359710afedd7d418c6dd1ca9a3b2effe3618b0178f3a34a3f701",
        "0298d002f19b185122928f1598a1867ea06f2616dd3f0ad5037f93cb378a46478d"
      ]
    },
    {
      "scriptSig": "",
      "txid": "390ba946e9364fd47e050249aa644208cc139a7c8cccc54e6defbefaacaacb51",
      "vout": 0,
      "sequence": 4294967295,
      "witness": [
        "304502210080df075a25b25c13c2fa7b3202edf73236e4999b3efdbb3035747957aa5091cb022061d8e31d07e4b42d6448c677f3563fc083d563eedd41cd475c7271197bf1980301",
        "0298d002f19b185122928f1598a1867ea06f2616dd3f0ad5037f93cb378a46478d"
      ]
    }
  ],
  "vout": [
    {
      "n": 0,
      "scriptPubKey": {
        "addresses": ["bc1qe02jal267rk7n7272vt3zafx9ruay394v98xf0"],
        "asm": "OP_0 OP_PUSHBYTES_20 cbd52efd5af0ede9f95e531711752628f9d244b5",
        "hex": "0014cbd52efd5af0ede9f95e531711752628f9d244b5",
        "reqSigs": 1,
        "type": "witnesspubkeyhash"
      },
      "value": 800000000
    },
    {
      "n": 1,
      "scriptPubKey": {
        "addresses": ["bc1qv296xj9aw54lapulrvcuyq7ku4gl8p27yh9cc8"],
        "asm": "OP_0 OP_PUSHBYTES_20 628ba348bd752bfe879f1b31c203d6e551f3855e",
        "hex": "0014628ba348bd752bfe879f1b31c203d6e551f3855e",
        "reqSigs": 1,
        "type": "witnesspubkeyhash"
      },
      "value": 799900000
    }
  ],
  "locktime": 0,
  "transactionHex": "02000000000102de8f795a233fe8f34d6a26e35517ef953d3ab5b44ada532c14d326038a2fc8a20000000000ffffffff51cbaaacfabeef6d4ec5cc8c7c9a13cc084264aa4902057ed44f36e946a90b390000000000ffffffff020008af2f00000000160014cbd52efd5af0ede9f95e531711752628f9d244b56081ad2f00000000160014628ba348bd752bfe879f1b31c203d6e551f3855e02493046022100a49596beafae0136878325d5c607a0a6bd5d556095bce2139dea5aec78377173022100ac7e7d1ca14168359710afedd7d418c6dd1ca9a3b2effe3618b0178f3a34a3f701210298d002f19b185122928f1598a1867ea06f2616dd3f0ad5037f93cb378a46478d0248304502210080df075a25b25c13c2fa7b3202edf73236e4999b3efdbb3035747957aa5091cb022061d8e31d07e4b42d6448c677f3563fc083d563eedd41cd475c7271197bf1980301210298d002f19b185122928f1598a1867ea06f2616dd3f0ad5037f93cb378a46478d00000000"
}
